:060000000A128A110C280F
:10000800FE00030EF5000A08F6000A128A114529B7
:100018000A128A110F280A128A1151210A128A110A
:10002800A0000A128A1152210A128A11A1000A128A
:100038008A114F210A128A11F9000A128A115021D5
:100048000A128A11FA00F001F101F201F301F40138
:1000580083010A128A112C2900308A000408840AB4
:10006800820700344234693465346E34763465343A
:100078006E34693464346F3421342034413420348C
:1000880071347534653420347034753465347234A1
:1000980074346F34203464346534733465346134B3
:1000A80020346134673472346534673461347234AF
:1000B800203475346E342034763461346C346F34C3
:1000C80072343F3420343D343D343D343E342034A2
:1000D80031343A342034503455344534523454345D
:1000E8004F342034423420346F34203432343A349C
:1000F8002034503455344534523454344F34203439
:1001080041340034513475346534203476346134E4
:100118006C346F3472342034643465347334653429
:100128006134203469346E3467347234653473341E
:10013800613472343F340034C828831203130C1E10
:10014800A628A728C828F401C1282130F80076304D
:10015800F700F70BAD28F80BAD2800007408513EE6
:1001680084000A128A1130200A128A11831203139A
:1001780099000130F7007708F4071A307402031C5D
:10018800C628C728A928A0281A307402031CCD281D
:10019800CE28A1280800F728831203130C1ED5289F
:1001A800D628F728F401F0282130F8007630F70037
:1001B800F70BDC28F80BDC2800007408013E8400EB
:1001C8000A128A1130200A128A1183120313990025
:1001D8000130F7007708F40750307402031CF52843
:1001E800F628D828CF2850307402031CFC28FD2894
:1001F800D028080083160317880189018316031382
:10020800880186018312031388018601831603136C
:100218000F088F3940388F000F14181218158316DD
:100228000317871519308316031399009A0183124F
:1002380003139817181318168316031398168312A6
:1002480003138C12831603138C168B170B170800D5
:100258000A128A11FE200A128A11A330831203138C
:10026800A3005430A200A20B3729A30B37290000A2
:100278000A128A11CF200A128A1131290A128A1108
:100288000C28831203130C0876088A00750E830065
:0E029800FE0E7E0E0900503400341A3400347D
:04400E00D420FF3F7C
:00000001FF
