:060000000A128A110C280F
:10000800FE00030EF0000A08F1000A128A11EA281D
:100018000A128A110F280A128A11F9200A128A1163
:10002800F6000A128A11FA200A128A11F700F8015A
:1000380083010A128A11D42800308A000408840A2D
:10004800820700344234693465346E34763465345A
:100058006E34693464346F3421342034BF3441340D
:10006800203471347534E93420347034753465348F
:10007800723474346F3420346434653473346534C2
:1000880061342034613467347234653467346134E0
:100098007234203475346E342034763461346C34E0
:1000A8006F3472343F3420343D343D343D343E3473
:1000B800203431343A3420345034553445345234B1
:1000C80054344F342034423420346F3420343234A2
:1000D8003A342034503455344534523454344F343F
:1000E8002034413400349F28831203130C1E7D28CA
:1000F8007E289F28F80198282130F3007630F200F6
:10010800F20B8428F30B842800007808013E840051
:100118000A128A1120200A128A11831203139900E5
:100128000130F2007208F80751307802031C9D284C
:100138009E288028772851307802031CA428A528F7
:10014800782808008316031788018901831603138A
:10015800880186018312031388018601831603131D
:100168000F088F3940388F000F141812181583168E
:100178000317871519308316031399009A01831200
:100188000313981718131816831603139816831257
:1001980003138C12831603138C168B170B17080086
:1001A8000A128A11A6200A128A11A330F5005530C6
:1001B800F400F40BDD28F50BDD280A128A117720EC
:1001C8000A128A11D9280A128A110C2883120313D9
:1001D8008C1EEF28F028F2281A08860071088A0079
:0E01E800700E8300FE0E7E0E090051340034AE
:04400E00D420FF3F7C
:00000001FF
