:060000000A128A110C280F
:10000800FE00030EF7000A08F8000A128A11092AEE
:100018000A128A110F280A128A111B220A128A113F
:10002800A0000A128A111C220A128A11A1000A12BF
:100038008A111D220A128A11A2000A128A111E228E
:100048000A128A11A300A801A901F001F101F20125
:10005800F301F40183010A128A11DE2900308A00B3
:100068000408840A82070034513475346534203416
:10007800763461346C346F347234203464346534CB
:10008800733465346134203469346E3467347234BF
:1000980065347334613472343F34203450347234EC
:1000A8006534733469346F346E34613420346C349D
:1000B80061342034623461347234723461342034EF
:1000C800653473347034613463346934613464344E
:1000D8006F347234613420346334753461346E346F
:1000E80064346F3420347434653472346D34693454
:1000F8006E346534203464346534203469346E34A5
:10010800673472346534733461347234203465343E
:100118006C342034763461346C346F3472340A347D
:100128000D340A340D340A340D3400344234693441
:1001380065346E34763465346E34693464346F34BF
:1001480021342034413420347134753465342034FA
:10015800703475346534723474346F3420346434D4
:1001680065347334653461342034613467347234EF
:100178006534673461347234203475346E34203415
:10018800763461346C346F3472343F3420343D3407
:100198003D343D343E34203431343A342034503404
:1001A80055344534523454344F3420344234203496
:1001B8006F34203432343A34203450345534453492
:1001C800523454344F34203441340A340D3400341A
:1001D80070037104031DF128F228FF28831203130A
:1001E8001A08F500F6017508F2007608F3000230E7
:1001F800F0000030F100313072067304031D052948
:1002080006292229033070067104031D0C290D29C3
:10021800222917291A08F500F6017508F200760850
:10022800F300720886002030831203131A06031D98
:100238001E291F290E29F001F101F401323072063E
:100248007304031D282929294529033070067104E0
:10025800031D2F29302945293A291A08F500F601E6
:100268007508F2007608F3007208850020308312C2
:1002780003131A06031D412942293129F001F1010E
:10028800F40108006F29831203130C1E4C294D2911
:100298006F29F4016829043083120313A5003D3047
:1002A800A400A40B5529A50B55297408013E840008
:1002B8000A128A1132200A128A1183120313990032
:1002C8000130A4002408F40762307402031C6D296D
:1002D8006E294F29462962307402031C7429752936
:1002E80047290330F0000030F1000800A3298312E9
:1002F80003130C1E80298129A329F4019C290430A9
:1003080083120313A5003D30A400A40B8929A50B73
:1003180089297408633E84000A128A1132200A125D
:100328008A118312031399000130A4002408F407EA
:1003380052307402031CA129A22983297A29523038
:100348007402031CA829A9297B290130F000003078
:10035800F100080083160317880189018316031327
:1003680088018601850183120313880186018501AE
:10037800831603130F088F3940388F000F14181293
:100388001815831603178715193083160313990058
:100398009A01831203139817181318168316031358
:1003A8009816831203138C12831603138C168B175B
:1003B8000B1708000A128A11AE210A128A1111308D
:1003C80083120313A7003930A600A60BE929A70B4F
:1003D800E929EE2970087104031DF329F429F92984
:1003E8000A128A117A210A128A11023070067104DF
:1003F800031DFF29002AE3290A128A1146210A123D
:100408008A11E3290A128A110C28831203138C1EFD
:100418000E2A0F2A142A0A128A11EC200A128A11AB
:1004280078088A00770E8300FE0E7E0E090062347B
:06043800003452340034D0
:04400E00D420FF3F7C
:00000001FF
