:060000000A128A110C280F
:10000800FE00030EF0000A08F1000A128A115E28A9
:100018000A128A110F28F501F601F70183010A1265
:100028008A11402883160317880189018316031350
:1000380088018312031388017030831603138F0419
:100048000F14181218118316031787151930831601
:10005800031399009A01831203139817181318169B
:10006800831603139816831203138C128316031333
:100078008C168B170B1708000A128A1116200A1201
:100088008A110630F4001330F300AD30F200F20BA1
:100098004B28F30B4B28F40B4B28522883120313DD
:1000A8000C1E5728582845280A30990045280A1256
:1000B8008A110C28831203138C1E6328642866286F
:1000C8001A08880071088A00700E8300FE0E7E0EE2
:1000D800090000308A000408840A820700340A34C0
:04400E00D420FF3F7C
:00000001FF
