:060000000A128A110C280F
:10000800FE00030EF0000A08F1000A128A1199286E
:100018000A128A110F28F60183010A128A11702820
:100028008316031788018901831603138801860143
:100038008312031388018601831603130F088F396F
:1000480040388F000F1418121815831603178715D8
:1000580019308316031399009A0183120313981712
:1000680018131816831603139816831203138C1289
:10007800831603138C168B170B1708006928831235
:1000880003130C1E482849286928F6012130F3007B
:100098007630F200F20B4E28F30B4E28000076085B
:1000A800013E84000A128A1186200A128A118312DC
:1000B800031399000130F2007208F6070E30760239
:1000C800031C672868284A2842280E307602031C39
:1000D8006E286F28432808000A128A1114200A1271
:1000E8008A11A330F5005530F400F40B7928F50B8C
:1000F80079280A128A1142200A128A1175280A12CE
:100108008A110C2800308A000408840A8207003407
:100118004234693465346E34763465346E34693407
:1001280064346F3420343A342934831203138C1E18
:100138009E289F28A1281A08860071088A00700E38
:080148008300FE0E7E0E09008B
:04400E00D420FF3F7C
:00000001FF
