:060000000A128A110C280F
:10000800FE00030EF0000A08F1000A128A115A28AD
:100018000A128A110F2883010A128A1141288316AD
:100028000317880189018316031388018601831247
:10003800031388018601831603130F088F3940388C
:100048008F000F1418121815831603178715193007
:100058008316031399009A01831203139817181330
:100068001816831603139816831203138C1283161B
:1000780003138C168B170B1708000A128A1113200A
:100088000A128A11A330F3005530F200F20B4A2805
:10009800F30B4A28831203130C1E532854284628AE
:1000A8004A30990046280A128A110C288312031331
:1000B8008C1E5F28602862281A08860071088A004A
:1000C800700E8300FE0E7E0E090000308A000408C0
:0800D800840A820700344A3457
:04400E00D420FF3F7C
:00000001FF
